{
  "_format": "hh-sol-artifact-1",
  "contractName": "Bhoomi",
  "sourceName": "contracts/bhoomi.sol",
  "abi": [
    {
      "inputs": [],
      "stateMutability": "nonpayable",
      "type": "constructor"
    },
    {
      "inputs": [
        {
          "internalType": "address",
          "name": "sender",
          "type": "address"
        },
        {
          "internalType": "uint256",
          "name": "tokenId",
          "type": "uint256"
        },
        {
          "internalType": "address",
          "name": "owner",
          "type": "address"
        }
      ],
      "name": "ERC721IncorrectOwner",
      "type": "error"
    },
    {
      "inputs": [
        {
          "internalType": "address",
          "name": "operator",
          "type": "address"
        },
        {
          "internalType": "uint256",
          "name": "tokenId",
          "type": "uint256"
        }
      ],
      "name": "ERC721InsufficientApproval",
      "type": "error"
    },
    {
      "inputs": [
        {
          "internalType": "address",
          "name": "approver",
          "type": "address"
        }
      ],
      "name": "ERC721InvalidApprover",
      "type": "error"
    },
    {
      "inputs": [
        {
          "internalType": "address",
          "name": "operator",
          "type": "address"
        }
      ],
      "name": "ERC721InvalidOperator",
      "type": "error"
    },
    {
      "inputs": [
        {
          "internalType": "address",
          "name": "owner",
          "type": "address"
        }
      ],
      "name": "ERC721InvalidOwner",
      "type": "error"
    },
    {
      "inputs": [
        {
          "internalType": "address",
          "name": "receiver",
          "type": "address"
        }
      ],
      "name": "ERC721InvalidReceiver",
      "type": "error"
    },
    {
      "inputs": [
        {
          "internalType": "address",
          "name": "sender",
          "type": "address"
        }
      ],
      "name": "ERC721InvalidSender",
      "type": "error"
    },
    {
      "inputs": [
        {
          "internalType": "uint256",
          "name": "tokenId",
          "type": "uint256"
        }
      ],
      "name": "ERC721NonexistentToken",
      "type": "error"
    },
    {
      "inputs": [
        {
          "internalType": "address",
          "name": "owner",
          "type": "address"
        }
      ],
      "name": "OwnableInvalidOwner",
      "type": "error"
    },
    {
      "inputs": [
        {
          "internalType": "address",
          "name": "account",
          "type": "address"
        }
      ],
      "name": "OwnableUnauthorizedAccount",
      "type": "error"
    },
    {
      "anonymous": false,
      "inputs": [
        {
          "indexed": true,
          "internalType": "address",
          "name": "owner",
          "type": "address"
        },
        {
          "indexed": true,
          "internalType": "address",
          "name": "approved",
          "type": "address"
        },
        {
          "indexed": true,
          "internalType": "uint256",
          "name": "tokenId",
          "type": "uint256"
        }
      ],
      "name": "Approval",
      "type": "event"
    },
    {
      "anonymous": false,
      "inputs": [
        {
          "indexed": true,
          "internalType": "address",
          "name": "owner",
          "type": "address"
        },
        {
          "indexed": true,
          "internalType": "address",
          "name": "operator",
          "type": "address"
        },
        {
          "indexed": false,
          "internalType": "bool",
          "name": "approved",
          "type": "bool"
        }
      ],
      "name": "ApprovalForAll",
      "type": "event"
    },
    {
      "anonymous": false,
      "inputs": [
        {
          "indexed": false,
          "internalType": "uint256",
          "name": "_fromTokenId",
          "type": "uint256"
        },
        {
          "indexed": false,
          "internalType": "uint256",
          "name": "_toTokenId",
          "type": "uint256"
        }
      ],
      "name": "BatchMetadataUpdate",
      "type": "event"
    },
    {
      "anonymous": false,
      "inputs": [
        {
          "indexed": false,
          "internalType": "uint256",
          "name": "_tokenId",
          "type": "uint256"
        }
      ],
      "name": "MetadataUpdate",
      "type": "event"
    },
    {
      "anonymous": false,
      "inputs": [
        {
          "indexed": true,
          "internalType": "address",
          "name": "previousOwner",
          "type": "address"
        },
        {
          "indexed": true,
          "internalType": "address",
          "name": "newOwner",
          "type": "address"
        }
      ],
      "name": "OwnershipTransferred",
      "type": "event"
    },
    {
      "anonymous": false,
      "inputs": [
        {
          "indexed": true,
          "internalType": "address",
          "name": "from",
          "type": "address"
        },
        {
          "indexed": true,
          "internalType": "address",
          "name": "to",
          "type": "address"
        },
        {
          "indexed": true,
          "internalType": "uint256",
          "name": "tokenId",
          "type": "uint256"
        }
      ],
      "name": "Transfer",
      "type": "event"
    },
    {
      "inputs": [
        {
          "internalType": "address",
          "name": "to",
          "type": "address"
        },
        {
          "internalType": "uint256",
          "name": "tokenId",
          "type": "uint256"
        }
      ],
      "name": "approve",
      "outputs": [],
      "stateMutability": "nonpayable",
      "type": "function"
    },
    {
      "inputs": [
        {
          "internalType": "address",
          "name": "owner",
          "type": "address"
        }
      ],
      "name": "balanceOf",
      "outputs": [
        {
          "internalType": "uint256",
          "name": "",
          "type": "uint256"
        }
      ],
      "stateMutability": "view",
      "type": "function"
    },
    {
      "inputs": [
        {
          "internalType": "uint256",
          "name": "tokenId",
          "type": "uint256"
        }
      ],
      "name": "buyLand",
      "outputs": [],
      "stateMutability": "payable",
      "type": "function"
    },
    {
      "inputs": [
        {
          "internalType": "uint256",
          "name": "tokenId",
          "type": "uint256"
        }
      ],
      "name": "getApproved",
      "outputs": [
        {
          "internalType": "address",
          "name": "",
          "type": "address"
        }
      ],
      "stateMutability": "view",
      "type": "function"
    },
    {
      "inputs": [
        {
          "internalType": "address",
          "name": "owner",
          "type": "address"
        },
        {
          "internalType": "address",
          "name": "operator",
          "type": "address"
        }
      ],
      "name": "isApprovedForAll",
      "outputs": [
        {
          "internalType": "bool",
          "name": "",
          "type": "bool"
        }
      ],
      "stateMutability": "view",
      "type": "function"
    },
    {
      "inputs": [
        {
          "internalType": "uint256",
          "name": "tokenId",
          "type": "uint256"
        },
        {
          "internalType": "uint256",
          "name": "price",
          "type": "uint256"
        }
      ],
      "name": "listLand",
      "outputs": [],
      "stateMutability": "nonpayable",
      "type": "function"
    },
    {
      "inputs": [],
      "name": "name",
      "outputs": [
        {
          "internalType": "string",
          "name": "",
          "type": "string"
        }
      ],
      "stateMutability": "view",
      "type": "function"
    },
    {
      "inputs": [],
      "name": "owner",
      "outputs": [
        {
          "internalType": "address",
          "name": "",
          "type": "address"
        }
      ],
      "stateMutability": "view",
      "type": "function"
    },
    {
      "inputs": [
        {
          "internalType": "uint256",
          "name": "tokenId",
          "type": "uint256"
        }
      ],
      "name": "ownerOf",
      "outputs": [
        {
          "internalType": "address",
          "name": "",
          "type": "address"
        }
      ],
      "stateMutability": "view",
      "type": "function"
    },
    {
      "inputs": [
        {
          "internalType": "uint256",
          "name": "",
          "type": "uint256"
        }
      ],
      "name": "parcels",
      "outputs": [
        {
          "internalType": "string",
          "name": "coordinates",
          "type": "string"
        },
        {
          "internalType": "uint256",
          "name": "price",
          "type": "uint256"
        },
        {
          "internalType": "bool",
          "name": "isForSale",
          "type": "bool"
        }
      ],
      "stateMutability": "view",
      "type": "function"
    },
    {
      "inputs": [
        {
          "internalType": "address",
          "name": "citizen",
          "type": "address"
        },
        {
          "internalType": "string",
          "name": "tokenURI",
          "type": "string"
        },
        {
          "internalType": "string",
          "name": "coords",
          "type": "string"
        }
      ],
      "name": "registerLand",
      "outputs": [
        {
          "internalType": "uint256",
          "name": "",
          "type": "uint256"
        }
      ],
      "stateMutability": "nonpayable",
      "type": "function"
    },
    {
      "inputs": [],
      "name": "renounceOwnership",
      "outputs": [],
      "stateMutability": "nonpayable",
      "type": "function"
    },
    {
      "inputs": [
        {
          "internalType": "address",
          "name": "from",
          "type": "address"
        },
        {
          "internalType": "address",
          "name": "to",
          "type": "address"
        },
        {
          "internalType": "uint256",
          "name": "tokenId",
          "type": "uint256"
        }
      ],
      "name": "safeTransferFrom",
      "outputs": [],
      "stateMutability": "nonpayable",
      "type": "function"
    },
    {
      "inputs": [
        {
          "internalType": "address",
          "name": "from",
          "type": "address"
        },
        {
          "internalType": "address",
          "name": "to",
          "type": "address"
        },
        {
          "internalType": "uint256",
          "name": "tokenId",
          "type": "uint256"
        },
        {
          "internalType": "bytes",
          "name": "data",
          "type": "bytes"
        }
      ],
      "name": "safeTransferFrom",
      "outputs": [],
      "stateMutability": "nonpayable",
      "type": "function"
    },
    {
      "inputs": [
        {
          "internalType": "address",
          "name": "operator",
          "type": "address"
        },
        {
          "internalType": "bool",
          "name": "approved",
          "type": "bool"
        }
      ],
      "name": "setApprovalForAll",
      "outputs": [],
      "stateMutability": "nonpayable",
      "type": "function"
    },
    {
      "inputs": [
        {
          "internalType": "bytes4",
          "name": "interfaceId",
          "type": "bytes4"
        }
      ],
      "name": "supportsInterface",
      "outputs": [
        {
          "internalType": "bool",
          "name": "",
          "type": "bool"
        }
      ],
      "stateMutability": "view",
      "type": "function"
    },
    {
      "inputs": [],
      "name": "symbol",
      "outputs": [
        {
          "internalType": "string",
          "name": "",
          "type": "string"
        }
      ],
      "stateMutability": "view",
      "type": "function"
    },
    {
      "inputs": [
        {
          "internalType": "uint256",
          "name": "tokenId",
          "type": "uint256"
        }
      ],
      "name": "tokenURI",
      "outputs": [
        {
          "internalType": "string",
          "name": "",
          "type": "string"
        }
      ],
      "stateMutability": "view",
      "type": "function"
    },
    {
      "inputs": [
        {
          "internalType": "address",
          "name": "from",
          "type": "address"
        },
        {
          "internalType": "address",
          "name": "to",
          "type": "address"
        },
        {
          "internalType": "uint256",
          "name": "tokenId",
          "type": "uint256"
        }
      ],
      "name": "transferFrom",
      "outputs": [],
      "stateMutability": "nonpayable",
      "type": "function"
    },
    {
      "inputs": [
        {
          "internalType": "address",
          "name": "newOwner",
          "type": "address"
        }
      ],
      "name": "transferOwnership",
      "outputs": [],
      "stateMutability": "nonpayable",
      "type": "function"
    }
  ],
  "bytecode": "0x608060405234801561000f575f5ffd5b50336040518060400160405280600d81526020017f42686f6f6d692050617263656c000000000000000000000000000000000000008152506040518060400160405280600681526020017f42484f4f4d490000000000000000000000000000000000000000000000000000815250815f908161008b9190610423565b50806001908161009b9190610423565b5050505f73ffffffffffffffffffffffffffffffffffffffff168173ffffffffffffffffffffffffffffffffffffffff160361010e575f6040517f1e4fbdf70000000000000000000000000000000000000000000000000000000081526004016101059190610531565b60405180910390fd5b61011d8161012360201b60201c565b5061054a565b5f60075f9054906101000a900473ffffffffffffffffffffffffffffffffffffffff1690508160075f6101000a81548173ffffffffffffffffffffffffffffffffffffffff021916908373ffffffffffffffffffffffffffffffffffffffff1602179055508173ffffffffffffffffffffffffffffffffffffffff168173ffffffffffffffffffffffffffffffffffffffff167f8be0079c531659141344cd1fd0a4f28419497f9722a3daafe3b4186f6b6457e060405160405180910390a35050565b5f81519050919050565b7f4e487b71000000000000000000000000000000000000000000000000000000005f52604160045260245ffd5b7f4e487b71000000000000000000000000000000000000000000000000000000005f52602260045260245ffd5b5f600282049050600182168061026157607f821691505b6020821081036102745761027361021d565b5b50919050565b5f819050815f5260205f209050919050565b5f6020601f8301049050919050565b5f82821b905092915050565b5f600883026102d67fffffffffffffffffffffffffffffffffffffffffffffffffffffffffffffffff8261029b565b6102e0868361029b565b95508019841693508086168417925050509392505050565b5f819050919050565b5f819050919050565b5f61032461031f61031a846102f8565b610301565b6102f8565b9050919050565b5f819050919050565b61033d8361030a565b6103516103498261032b565b8484546102a7565b825550505050565b5f5f905090565b610368610359565b610373818484610334565b505050565b5b818110156103965761038b5f82610360565b600181019050610379565b5050565b601f8211156103db576103ac8161027a565b6103b58461028c565b810160208510156103c4578190505b6103d86103d08561028c565b830182610378565b50505b505050565b5f82821c905092915050565b5f6103fb5f19846008026103e0565b1980831691505092915050565b5f61041383836103ec565b9150826002028217905092915050565b61042c826101e6565b67ffffffffffffffff811115610445576104446101f0565b5b61044f825461024a565b61045a82828561039a565b5f60209050601f83116001811461048b575f8415610479578287015190505b6104838582610408565b8655506104ea565b601f1984166104998661027a565b5f5b828110156104c05784890151825560018201915060208501945060208101905061049b565b868310156104dd57848901516104d9601f8916826103ec565b8355505b6001600288020188555050505b505050505050565b5f73ffffffffffffffffffffffffffffffffffffffff82169050919050565b5f61051b826104f2565b9050919050565b61052b81610511565b82525050565b5f6020820190506105445f830184610522565b92915050565b612e51806105575f395ff3fe60806040526004361061011e575f3560e01c806395d89b411161009f578063c87b56dd11610063578063c87b56dd146103e8578063ced3955814610424578063e985e9c514610440578063f2fde38b1461047c578063f35fb209146104a45761011e565b806395d89b41146102f4578063a0fa8ede1461031e578063a22cb4651461035c578063aa0efd8a14610384578063b88d4fde146103c05761011e565b806342842e0e116100e657806342842e0e146102145780636352211e1461023c57806370a0823114610278578063715018a6146102b45780638da5cb5b146102ca5761011e565b806301ffc9a71461012257806306fdde031461015e578063081812fc14610188578063095ea7b3146101c457806323b872dd146101ec575b5f5ffd5b34801561012d575f5ffd5b5061014860048036038101906101439190612141565b6104cc565b6040516101559190612186565b60405180910390f35b348015610169575f5ffd5b5061017261052c565b60405161017f919061220f565b60405180910390f35b348015610193575f5ffd5b506101ae60048036038101906101a99190612262565b6105bb565b6040516101bb91906122cc565b60405180910390f35b3480156101cf575f5ffd5b506101ea60048036038101906101e5919061230f565b6105d6565b005b3480156101f7575f5ffd5b50610212600480360381019061020d919061234d565b6105ec565b005b34801561021f575f5ffd5b5061023a6004803603810190610235919061234d565b6106eb565b005b348015610247575f5ffd5b50610262600480360381019061025d9190612262565b61070a565b60405161026f91906122cc565b60405180910390f35b348015610283575f5ffd5b5061029e6004803603810190610299919061239d565b61071b565b6040516102ab91906123d7565b60405180910390f35b3480156102bf575f5ffd5b506102c86107d1565b005b3480156102d5575f5ffd5b506102de6107e4565b6040516102eb91906122cc565b60405180910390f35b3480156102ff575f5ffd5b5061030861080c565b604051610315919061220f565b60405180910390f35b348015610329575f5ffd5b50610344600480360381019061033f9190612262565b61089c565b604051610353939291906123f0565b60405180910390f35b348015610367575f5ffd5b50610382600480360381019061037d9190612456565b610954565b005b34801561038f575f5ffd5b506103aa60048036038101906103a591906125c0565b61096a565b6040516103b791906123d7565b60405180910390f35b3480156103cb575f5ffd5b506103e660048036038101906103e191906126e6565b610a1d565b005b3480156103f3575f5ffd5b5061040e60048036038101906104099190612262565b610a42565b60405161041b919061220f565b60405180910390f35b61043e60048036038101906104399190612262565b610abe565b005b34801561044b575f5ffd5b5061046660048036038101906104619190612766565b610ca6565b6040516104739190612186565b60405180910390f35b348015610487575f5ffd5b506104a2600480360381019061049d919061239d565b610d34565b005b3480156104af575f5ffd5b506104ca60048036038101906104c591906127a4565b610db8565b005b5f634906490660e01b7bffffffffffffffffffffffffffffffffffffffffffffffffffffffff1916827bffffffffffffffffffffffffffffffffffffffffffffffffffffffff19161480610525575061052482610e77565b5b9050919050565b60605f805461053a9061280f565b80601f01602080910402602001604051908101604052809291908181526020018280546105669061280f565b80156105b15780601f10610588576101008083540402835291602001916105b1565b820191905f5260205f20905b81548152906001019060200180831161059457829003601f168201915b5050505050905090565b5f6105c582610f58565b506105cf82610fde565b9050919050565b6105e882826105e3611017565b61101e565b5050565b5f73ffffffffffffffffffffffffffffffffffffffff168273ffffffffffffffffffffffffffffffffffffffff160361065c575f6040517f64a0ae9200000000000000000000000000000000000000000000000000000000815260040161065391906122cc565b60405180910390fd5b5f61066f838361066a611017565b611030565b90508373ffffffffffffffffffffffffffffffffffffffff168173ffffffffffffffffffffffffffffffffffffffff16146106e5578382826040517f64283d7b0000000000000000000000000000000000000000000000000000000081526004016106dc9392919061283f565b60405180910390fd5b50505050565b61070583838360405180602001604052805f815250610a1d565b505050565b5f61071482610f58565b9050919050565b5f5f73ffffffffffffffffffffffffffffffffffffffff168273ffffffffffffffffffffffffffffffffffffffff160361078c575f6040517f89c62b6400000000000000000000000000000000000000000000000000000000815260040161078391906122cc565b60405180910390fd5b60035f8373ffffffffffffffffffffffffffffffffffffffff1673ffffffffffffffffffffffffffffffffffffffff1681526020019081526020015f20549050919050565b6107d961123b565b6107e25f6112c2565b565b5f60075f9054906101000a900473ffffffffffffffffffffffffffffffffffffffff16905090565b60606001805461081b9061280f565b80601f01602080910402602001604051908101604052809291908181526020018280546108479061280f565b80156108925780601f1061086957610100808354040283529160200191610892565b820191905f5260205f20905b81548152906001019060200180831161087557829003601f168201915b5050505050905090565b6009602052805f5260405f205f91509050805f0180546108bb9061280f565b80601f01602080910402602001604051908101604052809291908181526020018280546108e79061280f565b80156109325780601f1061090957610100808354040283529160200191610932565b820191905f5260205f20905b81548152906001019060200180831161091557829003601f168201915b505050505090806001015490806002015f9054906101000a900460ff16905083565b61096661095f611017565b8383611385565b5050565b5f61097361123b565b60085f815480929190610985906128a1565b91905055505f600854905061099a858261155e565b6109a48185611651565b60405180606001604052808481526020015f81526020015f151581525060095f8381526020019081526020015f205f820151815f0190816109e59190612a88565b50602082015181600101556040820151816002015f6101000a81548160ff021916908315150217905550905050809150509392505050565b610a288484846105ec565b610a3c610a33611017565b858585856116ab565b50505050565b6060610a4d82610f58565b505f610a57611857565b90505f610a638461186d565b90505f825103610a77578092505050610ab9565b5f81511115610aab578181604051602001610a93929190612b91565b60405160208183030381529060405292505050610ab9565b610ab48461190e565b925050505b919050565b5f60095f8381526020019081526020015f206040518060600160405290815f82018054610aea9061280f565b80601f0160208091040260200160405190810160405280929190818152602001828054610b169061280f565b8015610b615780601f10610b3857610100808354040283529160200191610b61565b820191905f5260205f20905b815481529060010190602001808311610b4457829003601f168201915b5050505050815260200160018201548152602001600282015f9054906101000a900460ff16151515158152505090508060400151610bd4576040517f08c379a0000000000000000000000000000000000000000000000000000000008152600401610bcb90612bfe565b60405180910390fd5b8060200151341015610c1b576040517f08c379a0000000000000000000000000000000000000000000000000000000008152600401610c1290612c66565b60405180910390fd5b5f610c258361070a565b90505f60095f8581526020019081526020015f206002015f6101000a81548160ff0219169083151502179055508073ffffffffffffffffffffffffffffffffffffffff166108fc3490811502906040515f60405180830381858888f19350505050158015610c95573d5f5f3e3d5ffd5b50610ca1813385611974565b505050565b5f60055f8473ffffffffffffffffffffffffffffffffffffffff1673ffffffffffffffffffffffffffffffffffffffff1681526020019081526020015f205f8373ffffffffffffffffffffffffffffffffffffffff1673ffffffffffffffffffffffffffffffffffffffff1681526020019081526020015f205f9054906101000a900460ff16905092915050565b610d3c61123b565b5f73ffffffffffffffffffffffffffffffffffffffff168173ffffffffffffffffffffffffffffffffffffffff1603610dac575f6040517f1e4fbdf7000000000000000000000000000000000000000000000000000000008152600401610da391906122cc565b60405180910390fd5b610db5816112c2565b50565b3373ffffffffffffffffffffffffffffffffffffffff16610dd88361070a565b73ffffffffffffffffffffffffffffffffffffffff1614610e2e576040517f08c379a0000000000000000000000000000000000000000000000000000000008152600401610e2590612cce565b60405180910390fd5b8060095f8481526020019081526020015f2060010181905550600160095f8481526020019081526020015f206002015f6101000a81548160ff0219169083151502179055505050565b5f7f80ac58cd000000000000000000000000000000000000000000000000000000007bffffffffffffffffffffffffffffffffffffffffffffffffffffffff1916827bffffffffffffffffffffffffffffffffffffffffffffffffffffffff19161480610f4157507f5b5e139f000000000000000000000000000000000000000000000000000000007bffffffffffffffffffffffffffffffffffffffffffffffffffffffff1916827bffffffffffffffffffffffffffffffffffffffffffffffffffffffff1916145b80610f515750610f5082611adc565b5b9050919050565b5f5f610f6383611b45565b90505f73ffffffffffffffffffffffffffffffffffffffff168173ffffffffffffffffffffffffffffffffffffffff1603610fd557826040517f7e273289000000000000000000000000000000000000000000000000000000008152600401610fcc91906123d7565b60405180910390fd5b80915050919050565b5f60045f8381526020019081526020015f205f9054906101000a900473ffffffffffffffffffffffffffffffffffffffff169050919050565b5f33905090565b61102b8383836001611b7e565b505050565b5f5f61103b84611b45565b90505f73ffffffffffffffffffffffffffffffffffffffff168373ffffffffffffffffffffffffffffffffffffffff161461107c5761107b818486611d3d565b5b5f73ffffffffffffffffffffffffffffffffffffffff168173ffffffffffffffffffffffffffffffffffffffff1614611107576110bb5f855f5f611b7e565b600160035f8373ffffffffffffffffffffffffffffffffffffffff1673ffffffffffffffffffffffffffffffffffffffff1681526020019081526020015f205f82825403925050819055505b5f73ffffffffffffffffffffffffffffffffffffffff168573ffffffffffffffffffffffffffffffffffffffff161461118657600160035f8773ffffffffffffffffffffffffffffffffffffffff1673ffffffffffffffffffffffffffffffffffffffff1681526020019081526020015f205f82825401925050819055505b8460025f8681526020019081526020015f205f6101000a81548173ffffffffffffffffffffffffffffffffffffffff021916908373ffffffffffffffffffffffffffffffffffffffff160217905550838573ffffffffffffffffffffffffffffffffffffffff168273ffffffffffffffffffffffffffffffffffffffff167fddf252ad1be2c89b69c2b068fc378daa952ba7f163c4a11628f55a4df523b3ef60405160405180910390a4809150509392505050565b611243611017565b73ffffffffffffffffffffffffffffffffffffffff166112616107e4565b73ffffffffffffffffffffffffffffffffffffffff16146112c057611284611017565b6040517f118cdaa70000000000000000000000000000000000000000000000000000000081526004016112b791906122cc565b60405180910390fd5b565b5f60075f9054906101000a900473ffffffffffffffffffffffffffffffffffffffff1690508160075f6101000a81548173ffffffffffffffffffffffffffffffffffffffff021916908373ffffffffffffffffffffffffffffffffffffffff1602179055508173ffffffffffffffffffffffffffffffffffffffff168173ffffffffffffffffffffffffffffffffffffffff167f8be0079c531659141344cd1fd0a4f28419497f9722a3daafe3b4186f6b6457e060405160405180910390a35050565b5f73ffffffffffffffffffffffffffffffffffffffff168373ffffffffffffffffffffffffffffffffffffffff16036113f5575f6040517fa9fbf51f0000000000000000000000000000000000000000000000000000000081526004016113ec91906122cc565b60405180910390fd5b5f73ffffffffffffffffffffffffffffffffffffffff168273ffffffffffffffffffffffffffffffffffffffff160361146557816040517f5b08ba1800000000000000000000000000000000000000000000000000000000815260040161145c91906122cc565b60405180910390fd5b8060055f8573ffffffffffffffffffffffffffffffffffffffff1673ffffffffffffffffffffffffffffffffffffffff1681526020019081526020015f205f8473ffffffffffffffffffffffffffffffffffffffff1673ffffffffffffffffffffffffffffffffffffffff1681526020019081526020015f205f6101000a81548160ff0219169083151502179055508173ffffffffffffffffffffffffffffffffffffffff168373ffffffffffffffffffffffffffffffffffffffff167f17307eab39ab6107e8899845ad3d59bd9653f200f220920489ca2b5937696c31836040516115519190612186565b60405180910390a3505050565b5f73ffffffffffffffffffffffffffffffffffffffff168273ffffffffffffffffffffffffffffffffffffffff16036115ce575f6040517f64a0ae920000000000000000000000000000000000000000000000000000000081526004016115c591906122cc565b60405180910390fd5b5f6115da83835f611030565b90505f73ffffffffffffffffffffffffffffffffffffffff168173ffffffffffffffffffffffffffffffffffffffff161461164c575f6040517f73c6ac6e00000000000000000000000000000000000000000000000000000000815260040161164391906122cc565b60405180910390fd5b505050565b8060065f8481526020019081526020015f20908161166f9190612a88565b507ff8e1a15aba9398e019f0b49df1a4fde98ee17ae345cb5f6b5e2c27f5033e8ce78260405161169f91906123d7565b60405180910390a15050565b5f8373ffffffffffffffffffffffffffffffffffffffff163b1115611850578273ffffffffffffffffffffffffffffffffffffffff1663150b7a02868685856040518563ffffffff1660e01b81526004016117099493929190612d3e565b6020604051808303815f875af192505050801561174457506040513d601f19601f820116820180604052508101906117419190612d9c565b60015b6117c5573d805f8114611772576040519150601f19603f3d011682016040523d82523d5f602084013e611777565b606091505b505f8151036117bd57836040517f64a0ae920000000000000000000000000000000000000000000000000000000081526004016117b491906122cc565b60405180910390fd5b805160208201fd5b63150b7a0260e01b7bffffffffffffffffffffffffffffffffffffffffffffffffffffffff1916817bffffffffffffffffffffffffffffffffffffffffffffffffffffffff19161461184e57836040517f64a0ae9200000000000000000000000000000000000000000000000000000000815260040161184591906122cc565b60405180910390fd5b505b5050505050565b606060405180602001604052805f815250905090565b606060065f8381526020019081526020015f20805461188b9061280f565b80601f01602080910402602001604051908101604052809291908181526020018280546118b79061280f565b80156119025780601f106118d957610100808354040283529160200191611902565b820191905f5260205f20905b8154815290600101906020018083116118e557829003601f168201915b50505050509050919050565b606061191982610f58565b505f611923611857565b90505f8151116119415760405180602001604052805f81525061196c565b8061194b84611e00565b60405160200161195c929190612b91565b6040516020818303038152906040525b915050919050565b5f73ffffffffffffffffffffffffffffffffffffffff168273ffffffffffffffffffffffffffffffffffffffff16036119e4575f6040517f64a0ae920000000000000000000000000000000000000000000000000000000081526004016119db91906122cc565b60405180910390fd5b5f6119f083835f611030565b90505f73ffffffffffffffffffffffffffffffffffffffff168173ffffffffffffffffffffffffffffffffffffffff1603611a6257816040517f7e273289000000000000000000000000000000000000000000000000000000008152600401611a5991906123d7565b60405180910390fd5b8373ffffffffffffffffffffffffffffffffffffffff168173ffffffffffffffffffffffffffffffffffffffff1614611ad6578382826040517f64283d7b000000000000000000000000000000000000000000000000000000008152600401611acd9392919061283f565b60405180910390fd5b50505050565b5f7f01ffc9a7000000000000000000000000000000000000000000000000000000007bffffffffffffffffffffffffffffffffffffffffffffffffffffffff1916827bffffffffffffffffffffffffffffffffffffffffffffffffffffffff1916149050919050565b5f60025f8381526020019081526020015f205f9054906101000a900473ffffffffffffffffffffffffffffffffffffffff169050919050565b8080611bb657505f73ffffffffffffffffffffffffffffffffffffffff168273ffffffffffffffffffffffffffffffffffffffff1614155b15611ce8575f611bc584610f58565b90505f73ffffffffffffffffffffffffffffffffffffffff168373ffffffffffffffffffffffffffffffffffffffff1614158015611c2f57508273ffffffffffffffffffffffffffffffffffffffff168173ffffffffffffffffffffffffffffffffffffffff1614155b8015611c425750611c408184610ca6565b155b15611c8457826040517fa9fbf51f000000000000000000000000000000000000000000000000000000008152600401611c7b91906122cc565b60405180910390fd5b8115611ce657838573ffffffffffffffffffffffffffffffffffffffff168273ffffffffffffffffffffffffffffffffffffffff167f8c5be1e5ebec7d5bd14f71427d1e84f3dd0314c0f7b2291e5b200ac8c7c3b92560405160405180910390a45b505b8360045f8581526020019081526020015f205f6101000a81548173ffffffffffffffffffffffffffffffffffffffff021916908373ffffffffffffffffffffffffffffffffffffffff16021790555050505050565b611d48838383611eca565b611dfb575f73ffffffffffffffffffffffffffffffffffffffff168373ffffffffffffffffffffffffffffffffffffffff1603611dbc57806040517f7e273289000000000000000000000000000000000000000000000000000000008152600401611db391906123d7565b60405180910390fd5b81816040517f177e802f000000000000000000000000000000000000000000000000000000008152600401611df2929190612dc7565b60405180910390fd5b505050565b60605f6001611e0e84611f8a565b0190505f8167ffffffffffffffff811115611e2c57611e2b61249c565b5b6040519080825280601f01601f191660200182016040528015611e5e5781602001600182028036833780820191505090505b5090505f82602083010190505b600115611ebf578080600190039150507f3031323334353637383961626364656600000000000000000000000000000000600a86061a8153600a8581611eb457611eb3612dee565b5b0494505f8503611e6b575b819350505050919050565b5f5f73ffffffffffffffffffffffffffffffffffffffff168373ffffffffffffffffffffffffffffffffffffffff1614158015611f8157508273ffffffffffffffffffffffffffffffffffffffff168473ffffffffffffffffffffffffffffffffffffffff161480611f425750611f418484610ca6565b5b80611f8057508273ffffffffffffffffffffffffffffffffffffffff16611f6883610fde565b73ffffffffffffffffffffffffffffffffffffffff16145b5b90509392505050565b5f5f5f90507a184f03e93ff9f4daa797ed6e38ed64bf6a1f0100000000000000008310611fe6577a184f03e93ff9f4daa797ed6e38ed64bf6a1f0100000000000000008381611fdc57611fdb612dee565b5b0492506040810190505b6d04ee2d6d415b85acef81000000008310612023576d04ee2d6d415b85acef8100000000838161201957612018612dee565b5b0492506020810190505b662386f26fc10000831061205257662386f26fc10000838161204857612047612dee565b5b0492506010810190505b6305f5e100831061207b576305f5e100838161207157612070612dee565b5b0492506008810190505b61271083106120a057612710838161209657612095612dee565b5b0492506004810190505b606483106120c357606483816120b9576120b8612dee565b5b0492506002810190505b600a83106120d2576001810190505b80915050919050565b5f604051905090565b5f5ffd5b5f5ffd5b5f7fffffffff0000000000000000000000000000000000000000000000000000000082169050919050565b612120816120ec565b811461212a575f5ffd5b50565b5f8135905061213b81612117565b92915050565b5f60208284031215612156576121556120e4565b5b5f6121638482850161212d565b91505092915050565b5f8115159050919050565b6121808161216c565b82525050565b5f6020820190506121995f830184612177565b92915050565b5f81519050919050565b5f82825260208201905092915050565b8281835e5f83830152505050565b5f601f19601f8301169050919050565b5f6121e18261219f565b6121eb81856121a9565b93506121fb8185602086016121b9565b612204816121c7565b840191505092915050565b5f6020820190508181035f83015261222781846121d7565b905092915050565b5f819050919050565b6122418161222f565b811461224b575f5ffd5b50565b5f8135905061225c81612238565b92915050565b5f60208284031215612277576122766120e4565b5b5f6122848482850161224e565b91505092915050565b5f73ffffffffffffffffffffffffffffffffffffffff82169050919050565b5f6122b68261228d565b9050919050565b6122c6816122ac565b82525050565b5f6020820190506122df5f8301846122bd565b92915050565b6122ee816122ac565b81146122f8575f5ffd5b50565b5f81359050612309816122e5565b92915050565b5f5f60408385031215612325576123246120e4565b5b5f612332858286016122fb565b92505060206123438582860161224e565b9150509250929050565b5f5f5f60608486031215612364576123636120e4565b5b5f612371868287016122fb565b9350506020612382868287016122fb565b92505060406123938682870161224e565b9150509250925092565b5f602082840312156123b2576123b16120e4565b5b5f6123bf848285016122fb565b91505092915050565b6123d18161222f565b82525050565b5f6020820190506123ea5f8301846123c8565b92915050565b5f6060820190508181035f83015261240881866121d7565b905061241760208301856123c8565b6124246040830184612177565b949350505050565b6124358161216c565b811461243f575f5ffd5b50565b5f813590506124508161242c565b92915050565b5f5f6040838503121561246c5761246b6120e4565b5b5f612479858286016122fb565b925050602061248a85828601612442565b9150509250929050565b5f5ffd5b5f5ffd5b7f4e487b71000000000000000000000000000000000000000000000000000000005f52604160045260245ffd5b6124d2826121c7565b810181811067ffffffffffffffff821117156124f1576124f061249c565b5b80604052505050565b5f6125036120db565b905061250f82826124c9565b919050565b5f67ffffffffffffffff82111561252e5761252d61249c565b5b612537826121c7565b9050602081019050919050565b828183375f83830152505050565b5f61256461255f84612514565b6124fa565b9050828152602081018484840111156125805761257f612498565b5b61258b848285612544565b509392505050565b5f82601f8301126125a7576125a6612494565b5b81356125b7848260208601612552565b91505092915050565b5f5f5f606084860312156125d7576125d66120e4565b5b5f6125e4868287016122fb565b935050602084013567ffffffffffffffff811115612605576126046120e8565b5b61261186828701612593565b925050604084013567ffffffffffffffff811115612632576126316120e8565b5b61263e86828701612593565b9150509250925092565b5f67ffffffffffffffff8211156126625761266161249c565b5b61266b826121c7565b9050602081019050919050565b5f61268a61268584612648565b6124fa565b9050828152602081018484840111156126a6576126a5612498565b5b6126b1848285612544565b509392505050565b5f82601f8301126126cd576126cc612494565b5b81356126dd848260208601612678565b91505092915050565b5f5f5f5f608085870312156126fe576126fd6120e4565b5b5f61270b878288016122fb565b945050602061271c878288016122fb565b935050604061272d8782880161224e565b925050606085013567ffffffffffffffff81111561274e5761274d6120e8565b5b61275a878288016126b9565b91505092959194509250565b5f5f6040838503121561277c5761277b6120e4565b5b5f612789858286016122fb565b925050602061279a858286016122fb565b9150509250929050565b5f5f604083850312156127ba576127b96120e4565b5b5f6127c78582860161224e565b92505060206127d88582860161224e565b9150509250929050565b7f4e487b71000000000000000000000000000000000000000000000000000000005f52602260045260245ffd5b5f600282049050600182168061282657607f821691505b602082108103612839576128386127e2565b5b50919050565b5f6060820190506128525f8301866122bd565b61285f60208301856123c8565b61286c60408301846122bd565b949350505050565b7f4e487b71000000000000000000000000000000000000000000000000000000005f52601160045260245ffd5b5f6128ab8261222f565b91507fffffffffffffffffffffffffffffffffffffffffffffffffffffffffffffffff82036128dd576128dc612874565b5b600182019050919050565b5f819050815f5260205f209050919050565b5f6020601f8301049050919050565b5f82821b905092915050565b5f600883026129447fffffffffffffffffffffffffffffffffffffffffffffffffffffffffffffffff82612909565b61294e8683612909565b95508019841693508086168417925050509392505050565b5f819050919050565b5f61298961298461297f8461222f565b612966565b61222f565b9050919050565b5f819050919050565b6129a28361296f565b6129b66129ae82612990565b848454612915565b825550505050565b5f5f905090565b6129cd6129be565b6129d8818484612999565b505050565b5b818110156129fb576129f05f826129c5565b6001810190506129de565b5050565b601f821115612a4057612a11816128e8565b612a1a846128fa565b81016020851015612a29578190505b612a3d612a35856128fa565b8301826129dd565b50505b505050565b5f82821c905092915050565b5f612a605f1984600802612a45565b1980831691505092915050565b5f612a788383612a51565b9150826002028217905092915050565b612a918261219f565b67ffffffffffffffff811115612aaa57612aa961249c565b5b612ab4825461280f565b612abf8282856129ff565b5f60209050601f831160018114612af0575f8415612ade578287015190505b612ae88582612a6d565b865550612b4f565b601f198416612afe866128e8565b5f5b82811015612b2557848901518255600182019150602085019450602081019050612b00565b86831015612b425784890151612b3e601f891682612a51565b8355505b6001600288020188555050505b505050505050565b5f81905092915050565b5f612b6b8261219f565b612b758185612b57565b9350612b858185602086016121b9565b80840191505092915050565b5f612b9c8285612b61565b9150612ba88284612b61565b91508190509392505050565b7f4e6f7420666f722073616c6500000000000000000000000000000000000000005f82015250565b5f612be8600c836121a9565b9150612bf382612bb4565b602082019050919050565b5f6020820190508181035f830152612c1581612bdc565b9050919050565b7f496e73756666696369656e742066756e647300000000000000000000000000005f82015250565b5f612c506012836121a9565b9150612c5b82612c1c565b602082019050919050565b5f6020820190508181035f830152612c7d81612c44565b9050919050565b7f4e6f7420746865206f776e6572000000000000000000000000000000000000005f82015250565b5f612cb8600d836121a9565b9150612cc382612c84565b602082019050919050565b5f6020820190508181035f830152612ce581612cac565b9050919050565b5f81519050919050565b5f82825260208201905092915050565b5f612d1082612cec565b612d1a8185612cf6565b9350612d2a8185602086016121b9565b612d33816121c7565b840191505092915050565b5f608082019050612d515f8301876122bd565b612d5e60208301866122bd565b612d6b60408301856123c8565b8181036060830152612d7d8184612d06565b905095945050505050565b5f81519050612d9681612117565b92915050565b5f60208284031215612db157612db06120e4565b5b5f612dbe84828501612d88565b91505092915050565b5f604082019050612dda5f8301856122bd565b612de760208301846123c8565b9392505050565b7f4e487b71000000000000000000000000000000000000000000000000000000005f52601260045260245ffdfea2646970667358221220ba3adadd4d7d3edd548e6bc882d79f4018c733e7f0ec3ab07bdb755f49dbd16b64736f6c634300081c0033",
  "linkReferences": {},
  "deployedLinkReferences": {}
}